:020000020000FC
:100000002BC018951895189518951895189518954A
:100010001895189544273699FDCF04B115B1369A35
:10002000800E911E7A95A9F470E49694879407E95E
:1000300033248016900420F03394801A9008F9CF6E
:100040000695801608F0339400E0300E432D882486
:1000500099244030F9F208950FE90DBF00241124CE
:100060001394C09AB89ABA9ABB9AC29AC398A49A9F
:1000700002E007B904EC06B95EEFCCDF5A95E9F768
:1000800000E305BF1CD07894C39AC2988895C29AA1
:10009000C1DFC2984639D0F7C29A8895C298BADFB4
:1000A0004639A0F7C39809D058E2C2988895C29AF9
:1000B00088955A95D1F7F894FFCF15E401C017E45D
:0C00C000A89501B5086101BD11BD0895AF
:00000001FF
